:100000000C945E000C9486000C9486000C94860080
:100010000C9486000C9486000C9486000C94C60206
:100020000C9486000C9486000C9486000C94860038
:100030000C9486000C9486000C9486000C94860028
:100040000C947C020C9486000C946C030C94460374
:100050000C9486000C9486000C9486000C94860008
:100060000C9486000C9486000200000000240027F7
:10007000002A0000000000250028002B00040404D2
:100080000404040404020202020202030303030341
:10009000030102040810204080010204081020011E
:1000A0000204081020000000080002010000030400
:1000B000070000000000000000009E0311241FBE86
:1000C000CFEFD8E0DEBFCDBF11E0A0E0B1E0EAE6BF
:1000D000FDE002C005900D92A232B107D9F726E0EB
:1000E000A2E2B1E001C01D92A63CB207E1F710E028
:1000F000CEE5D0E004C02197FE010E94A806CD35D0
:10010000D107C9F70E9430040C94B3060C94000088
:1001100090E0FC01EB55FF4F2491FC01EF56FF4F9F
:100120003491FC01E358FF4FE491EE2309F43CC005
:10013000222339F1233091F038F42130A9F0223014
:1001400001F584B58F7D12C0273091F02830A1F0E1
:100150002430B9F4809180008F7D03C080918000AD
:100160008F77809380000DC084B58F7784BD09C0E0
:100170008091B0008F7703C08091B0008F7D809315
:10018000B000F0E0EE0FFF1FED58FF4FA591B491C6
:100190009FB7F894611104C08C913095382302C048
:1001A000EC913E2B3C939FBF0895CF93DF9390E05B
:1001B000FC01EF56FF4F2491FC01E358FF4F84915F
:1001C000882361F190E0880F991FFC01E759FF4FE8
:1001D000C591D491FC01ED58FF4FA591B4916111E7
:1001E00009C09FB7F8948881209582238883EC9179
:1001F0002E230BC0623061F49FB7F8948881322FB0
:10020000309583238883EC912E2B2C939FBF06C0BF
:100210008FB7F894E8812E2B28838FBFDF91CF9181
:100220000895CF92DF92EF92FF920F931F93CF9397
:10023000DF936C017A018B01C0E0D0E0CE15DF05C1
:1002400081F0D8016D918D01D601ED91FC91019065
:10025000F081E02DC6010995892B11F02196EECF92
:100260007E01C701DF91CF911F910F91FF90EF9019
:10027000DF90CF900895089580E090E00895FC010C
:10028000538D448D252F30E0842F90E0821B930BFB
:10029000541710F0CF96089501970895FC01918DA1
:1002A000828D981761F0828DDF01A80FB11D5D96D8
:1002B0008C91928D9F5F9F73928F90E008958FEF46
:1002C0009FEF0895FC01918D828D981731F0828DFA
:1002D000E80FF11D858D90E008958FEF9FEF089551
:1002E000FC01918D228D892F90E0805C9F4F821BB5
:1002F00091098F73992708958AE391E00E94700114
:1003000021E0892B09F420E0822F0895FC01848DDF
:10031000DF01A80FB11DA35ABF4F2C91848D90E02F
:1003200001968F739927848FA689B7892C93A0890A
:10033000B1898C91837080648C93938D848D981394
:1003400006C00288F389E02D80818F7D8083089527
:10035000EF92FF920F931F93CF93DF93EC0181E015
:10036000888F9B8D8C8D981305C0E889F9898081D1
:1003700085FD26C0F62E0B8D10E00F5F1F4F0F730B
:100380001127E02E8C8DE8120CC00FB607FCFACFB7
:10039000E889F989808185FFF5CFCE010E94860129
:1003A000F1CF8B8DFE01E80FF11DE35AFF4FF08274
:1003B0009FB7F8940B8FEA89FB89808180620AC01D
:1003C0009FB7F894EE89FF896083E889F989808175
:1003D0008370806480839FBF81E090E0DF91CF9144
:1003E0001F910F91FF90EF900895CF93DF93EC0151
:1003F000888D8823C9F0EA89FB89808185FD05C045
:10040000A889B9898C9186FD0FC00FB607FCF5CF7E
:10041000808185FFF2CFA889B9898C9185FFEDCFC6
:10042000CE010E948601E7CFDF91CF91089580E051
:1004300090E0892B29F00E947C0181110C9400002E
:100440000895EF92FF920F931F93CF93DF93E82EBF
:10045000F62EC7E0D0E0042F10E0B8010C2E02C049
:10046000759567950A94E2F761708E2D0E94880059
:1004700061E08F2D0E94880060E08F2D0E9488002F
:10048000219758F7DF91CF911F910F91FF90EF9037
:1004900008950F931F93CF93DF93082F162F60E0DB
:1004A000809173060E948800C0E0D0E080917506BC
:1004B00090E0C817D90784F4402F609174068091AA
:1004C00072060E942102412F60917406809172068B
:1004D0000E9421022196EACF60E0809173060E947B
:1004E000880061E080917306DF91CF911F910F9199
:1004F0000C9488000E94AE061F920F920FB60F92C6
:1005000011242F933F938F939F93AF93BF93809129
:10051000360190913701A0913801B09139013091A5
:10052000350123E0230F2D3720F40196A11DB11DC5
:1005300005C026E8230F0296A11DB11D20933501A9
:100540008093360190933701A0933801B09339011D
:100550008091310190913201A0913301B091340129
:100560000196A11DB11D8093310190933201A0939A
:100570003301B0933401BF91AF919F918F913F911F
:100580002F910F900FBE0F901F9018951F920F92F2
:100590000FB60F9211242F933F934F935F936F9356
:1005A0007F938F939F93AF93BF93EF93FF9380912C
:1005B0002D0190912E01A0912F01B0913001892B36
:1005C0008A2B8B2B49F190912C0180910000892777
:1005D0008093000080912D0190912E01A0912F0118
:1005E000B0913001181619061A061B060CF03DC012
:1005F00080912D0190912E01A0912F01B091300199
:100600000197A109B10980932D0190932E01A09328
:100610002F01B093300129C080910001E8E6F0E09D
:10062000E4919FEF90930001E130B9F098F0E2304F
:10063000C9F4909170009D7F9093700091E0909329
:10064000B0009091B100987F94609093B1001092A7
:10065000B30008C010926E0005C090916F009D7F9E
:1006600090936F0060E00E948800FF91EF91BF912E
:10067000AF919F918F917F916F915F914F913F913A
:100680002F910F900FBE0F901F9018951F920F92F1
:100690000FB60F9211242F933F934F935F936F9355
:1006A0007F938F939F93AF93BF93EF93FF938AE3CF
:1006B00091E00E948601FF91EF91BF91AF919F91D0
:1006C0008F917F916F915F914F913F912F910F90FB
:1006D0000FBE0F901F9018951F920F920FB60F929A
:1006E00011242F938F939F93EF93FF93E0914A01EF
:1006F000F0914B018081E0915001F091510182FD18
:1007000012C09081809153018F5F8F7320915401AB
:10071000821751F0E0915301F0E0E65CFE4F958FB7
:100720008093530101C08081FF91EF919F918F9140
:100730002F910F900FBE0F901F90189510923D01B2
:1007400010923C0188EE93E0A0E0B0E080933E017F
:1007500090933F01A0934001B093410183E191E068
:1007600090933B0180933A0185EC90E09093470190
:100770008093460184EC90E0909349018093480176
:1007800080EC90E090934B0180934A0181EC90E0E3
:1007900090934D0180934C0182EC90E090934F0137
:1007A00080934E0186EC90E090935101809350012C
:1007B000109253011092540110925501109256015B
:1007C0008CE0809372068BE0809373068AE08093BE
:1007D000740681E080937506E6E7F6E0119286E004
:1007E000E63CF807D9F787E080936B0686E08093B4
:1007F0006C0685E080936D0689E08093690688E049
:1008000080936A068CE0809320048BE0809321041F
:100810008AE08093220481E080932304E4E2F4E000
:10082000119284E0E437F807D9F78DE080937404DF
:100830008CE08093D7018BE08093D8018AE080938D
:10084000D90181E08093DA01EBEDF1E08BE292E0F7
:1008500011928E179F07E1F78DE080932B02089588
:10086000789484B5826084BD84B5816084BD85B58B
:10087000826085BD85B5816085BD80916E00816097
:1008800080936E001092810080918100826080933D
:10089000810080918100816080938100809180003F
:1008A0008160809380008091B10084608093B1006A
:1008B0008091B00081608093B00080917A00846064
:1008C00080937A0080917A00826080937A00809190
:1008D0007A00816080937A0080917A0080688093AA
:1008E0007A001092C10061E0809172060E94D500EA
:1008F00061E0809174060E94D50061E080917306EA
:100900000E94D50061E0809174060E94880067E033
:100910008BE00E94490260E089E00E94490261E0A8
:100920008CE00E94490260E08FE00E944902C0E032
:10093000D0E060E0809173060E94880002E716E034
:10094000E12CF12CDC2ED3948091750690E0E81612
:10095000F906B4F44D2D60917406809172060E94E0
:10096000210240E060917406809172060E9421028B
:10097000F8011482FFEFEF1AFF0A0C0F1D1FE4CFDE
:1009800060E0809173060E94880061E080917306A8
:100990000E9488002196C830D10559F6E6E7F6E0B6
:1009A000119286E0E63CF807D9F76FE08AE00E94F2
:1009B000490261E08AE00E94490262E080916B0690
:1009C0000E94D50062E080916C060E94D50060E034
:1009D00080916D060E94D5002091690630E08091DB
:1009E0006A06482F50E050936F0640936E0630938E
:1009F00071062093700661E00E94D50060E080914E
:100A000070060E94D50061E0809174040E94D500B8
:100A1000E0914A01F0914B0182E08083E091460130
:100A2000F09147011082E0914801F09149018FEC6B
:100A3000808310925201E0914E01F0914F0186E0C7
:100A40008083E0914C01F0914D0180818061808331
:100A5000E0914C01F0914D01808188608083E091AC
:100A60004C01F0914D01808180688083E0914C01C0
:100A7000F0914D0180818F7D808385E480937C009F
:100A800080917A00806480937A0080917A0086FD5C
:100A9000FCCF609178008091790070E0782B072E70
:100AA000000C880B990B611571058105910511F0FA
:100AB0000E943C0687E0C82E81E0D82E9BEDE92EEF
:100AC00091E0F92EC1E0F601D1916F0160E08091D3
:100AD000D8010E94880000E010E08091DA0190E0E7
:100AE00008171907ECF40115110549F44C2F609112
:100AF000D9018091D7010E9421024D2F08C040E00A
:100B00006091D9018091D7010E94210240E060915B
:100B1000D9018091D7010E9421020F5F1F4FDDCFC5
:100B200060E08091D8010E94880061E08091D80146
:100B30000E948800F701D1937F01CF5FC93019F679
:100B40000E941702B7CF8F929F92AF92BF92CF921F
:100B5000DF92EF92FF92CF93DF93EC01688179816E
:100B60008A819B81611571058105910521F464E2FB
:100B700079ED8BE597E02DE133EF41E050E00E9405
:100B8000450649015A019B01AC01A7EAB1E40E9464
:100B900064066B017C01ACEEB4EFA50194010E94E8
:100BA0007206DC01CB018C0D9D1DAE1DBF1DB7FF74
:100BB00003C00197A109B04888839983AA83BB83A6
:100BC000BC01CD019F77DF91CF91FF90EF90DF9037
:100BD000CF90BF90AF909F908F9008958F929F92EB
:100BE000AF92BF92CF92DF92EF92FF92609101019C
:100BF00070910201809103019091040161157105CA
:100C00008105910521F464E279ED8BE597E02DE112
:100C100033EF41E050E00E94450649015A019B0133
:100C2000AC01A7EAB1E40E9464066B017C01ACEE62
:100C3000B4EFA50194010E947206DC01CB018C0D7A
:100C40009D1DAE1DBF1DB7FF03C00197A109B04890
:100C50008093010190930201A0930301B0930401DA
:100C6000BC01CD019F77FF90EF90DF90CF90BF90B8
:100C7000AF909F908F90089560930101709302014F
:100C800080930301909304010895052E97FB1EF4B1
:100C900000940E945C0657FD07D00E94770607FC6F
:100CA00003D04EF40C945C065095409530952195F8
:100CB0003F4F4F4F5F4F0895909580957095619588
:100CC0007F4F8F4F9F4F08950E949906A59F900DCB
:100CD000B49F900DA49F800D911D11240895B7FF1E
:100CE0000C9464060E946406821B930B0895A1E293
:100CF0001A2EAA1BBB1BFD010DC0AA1FBB1FEE1F96
:100D0000FF1FA217B307E407F50720F0A21BB30BE0
:100D1000E40BF50B661F771F881F991F1A9469F75C
:100D200060957095809590959B01AC01BD01CF01B8
:100D30000895A29FB001B39FC001A39F700D811DB4
:100D40001124911DB29F700D811D1124911D0895D4
:100D5000EE0FFF1F0590F491E02D099481E090E0E3
:0A0D6000F8940C94B306F894FFCF4A
:100D6A00FF010000000808204080808080402000A9
:100D7A00000000A80111013F01F50170014E016256
:020D8A00010066
:107E0000112484B714BE81FFF0D085E080938100F7
:107E100082E08093C00088E18093C10086E0809377
:107E2000C20080E18093C4008EE0C9D0259A86E02C
:107E300020E33CEF91E0309385002093840096BBD3
:107E4000B09BFECF1D9AA8958150A9F7CC24DD24C4
:107E500088248394B5E0AB2EA1E19A2EF3E0BF2EE7
:107E6000A2D0813461F49FD0082FAFD0023811F036
:107E7000013811F484E001C083E08DD089C08234E0
:107E800011F484E103C0853419F485E0A6D080C0E4
:107E9000853579F488D0E82EFF2485D0082F10E0AE
:107EA000102F00270E291F29000F111F8ED06801E7
:107EB0006FC0863521F484E090D080E0DECF843638
:107EC00009F040C070D06FD0082F6DD080E0C81688
:107ED00080E7D80618F4F601B7BEE895C0E0D1E017
:107EE00062D089930C17E1F7F0E0CF16F0E7DF06D8
:107EF00018F0F601B7BEE89568D007B600FCFDCFD4
:107F0000A601A0E0B1E02C9130E011968C91119780
:107F100090E0982F8827822B932B1296FA010C0160
:107F200087BEE89511244E5F5F4FF1E0A038BF0790
:107F300051F7F601A7BEE89507B600FCFDCF97BE46
:107F4000E89526C08437B1F42ED02DD0F82E2BD052
:107F50003CD0F601EF2C8F010F5F1F4F84911BD097
:107F6000EA94F801C1F70894C11CD11CFA94CF0C13
:107F7000D11C0EC0853739F428D08EE10CD085E9AC
:107F80000AD08FE07ACF813511F488E018D01DD067
:107F900080E101D065CF982F8091C00085FFFCCF94
:107FA0009093C60008958091C00087FFFCCF809118
:107FB000C00084FD01C0A8958091C6000895E0E648
:107FC000F0E098E1908380830895EDDF803219F02E
:107FD00088E0F5DFFFCF84E1DECF1F93182FE3DFCA
:107FE0001150E9F7F2DF1F91089580E0E8DFEE27F6
:047FF000FF270994CA
:027FFE00040479
:0400000300007E007B
:00000001FF
