:100000000C9463000C948B000C948B000C948B006C
:100010000C948B000C948B000C948B000C94580364
:100020000C948B000C948B000C948B000C948B0024
:100030000C948B000C948B000C948B000C948B0014
:100040000C940E030C948B000C94FE030C94D803B8
:100050000C948B000C948B000C948B000C948B00F4
:100060000C948B000C948B000200000000240027ED
:10007000002A0000000000250028002B00000000DE
:1000800000230026002900040404040404040402DC
:100090000202020202030303030303010204081025
:1000A00020408001020408102001020408102000F2
:1000B0000000080002010000030407000000000027
:1000C00000000000300411241FBECFEFD8E0DEBFD7
:1000D000CDBF11E0A0E0B1E0E4E9FBE002C0059093
:1000E0000D92A431B107D9F726E0A4E1B1E001C037
:1000F0001D92A83BB207E1F710E0C3E6D0E004C0D0
:100100002197FE010E94BD05C236D107C9F70E94A2
:10011000C2040C94C8050C940000833081F028F4CC
:10012000813099F08230A1F008958730A9F08830AD
:10013000B9F08430D1F4809180008F7D03C080912C
:1001400080008F7780938000089584B58F7702C0F8
:1001500084B58F7D84BD08958091B0008F7703C0F2
:100160008091B0008F7D8093B0000895CF93DF938E
:10017000282F30E0F901E155FF4F8491F901E55650
:10018000FF4FD491F901E957FF4FC491CC2391F06F
:1001900081110E948D00EC2FF0E0EE0FFF1FE3585D
:1001A000FF4FA591B491EC91ED2381E090E021F413
:1001B00080E002C080E090E0DF91CF9108951F932E
:1001C000CF93DF93282F30E0F901E155FF4F849161
:1001D000F901E556FF4FD491F901E957FF4FC4915A
:1001E000CC23C1F0162F81110E948D00EC2FF0E07E
:1001F000EE0FFF1FED58FF4FA591B4919FB7F894F4
:10020000111104C08C91D095D82302C0EC91DE2B43
:10021000DC939FBFDF91CF911F910895CF93DF9320
:1002200090E0FC01E556FF4F2491FC01E957FF4F98
:100230008491882361F190E0880F991FFC01E759B0
:10024000FF4FC591D491FC01ED58FF4FA591B4919A
:10025000611109C09FB7F894888120958223888313
:10026000EC912E230BC0623061F49FB7F894888123
:10027000322F309583238883EC912E2B2C939FBFB4
:1002800006C08FB7F894E8812E2B28838FBFDF91AB
:10029000CF910895CF92DF92EF92FF920F931F9329
:1002A000CF93DF936C017A018B01C0E0D0E0CE15D3
:1002B000DF0581F0D8016D918D01D601ED91FC91A2
:1002C0000190F081E02DC6010995892B11F021964E
:1002D000EECF7E01C701DF91CF911F910F91FF906B
:1002E000EF90DF90CF900895089580E090E008951A
:1002F000FC01538D448D252F30E0842F90E0821B2C
:10030000930B541710F0CF96089501970895FC01B0
:10031000918D828D981761F0828DDF01A80FB11D3C
:100320005D968C91928D9F5F9F73928F90E0089560
:100330008FEF9FEF0895FC01918D828D981731F01A
:10034000828DE80FF11D858D90E008958FEF9FEF6E
:100350000895FC01918D228D892F90E0805C9F4F44
:10036000821B91098F73992708958CE291E00E9476
:10037000A90121E0892B09F420E0822F0895FC01D6
:10038000848DDF01A80FB11DA35ABF4F2C91848D1E
:1003900090E001968F739927848FA689B7892C9353
:1003A000A089B1898C91837080648C93938D848DA6
:1003B000981306C00288F389E02D80818F7D8083A9
:1003C0000895EF92FF920F931F93CF93DF93EC0169
:1003D00081E0888F9B8D8C8D981305C0E889F98901
:1003E000808185FD26C0F62E0B8D10E00F5F1F4F1C
:1003F0000F731127E02E8C8DE8120CC00FB607FC8E
:10040000FACFE889F989808185FFF5CFCE010E9476
:10041000BF01F1CF8B8DFE01E80FF11DE35AFF4FB5
:10042000F0829FB7F8940B8FEA89FB898081806204
:100430000AC09FB7F894EE89FF896083E889F9893B
:1004400080818370806480839FBF81E090E0DF9132
:10045000CF911F910F91FF90EF900895CF93DF936D
:10046000EC01888D8823C9F0EA89FB89808185FDAC
:1004700005C0A889B9898C9186FD0FC00FB607FC0D
:10048000F5CF808185FFF2CFA889B9898C9185FF4E
:10049000EDCFCE010E94BF01E7CFDF91CF9108954C
:1004A00080E090E0892B29F00E94B50181110C9425
:1004B00000000895EF92FF920F931F93CF93DF9365
:1004C000E82EF62EC7E0D0E0042F10E0B8010C2E85
:1004D00002C0759567950A94E2F761708E2D0E94AF
:1004E000DF0061E08F2D0E94DF0060E08F2D0E9411
:1004F000DF00219758F7DF91CF911F910F91FF9067
:10050000EF9008950F931F93CF93DF93082F162F2B
:1005100060E0809165060E94DF00C0E0D0E080913D
:10052000670690E0C817D90784F4402F60916606EB
:10053000809164060E945A02412F60916606809164
:1005400064060E945A022196EACF60E08091650617
:100550000E94DF0061E080916506DF91CF911F91DD
:100560000F910C94DF00AF92BF92CF92DF92EF9287
:10057000FF920F931F93CF93DF93EC01162F042F5D
:1005800060E089810E94DF00A12EB12C7E01C12C88
:10059000D12C1F5F8B8190E0C816D90694F4412FAF
:1005A0006A8188810E945A02402F6A8188810E9454
:1005B0005A02F7010483FFEFCF1ADF0AEA0CFB1C93
:1005C000E9CF60E089810E94DF0061E08981DF91ED
:1005D000CF911F910F91FF90EF90DF90CF90BF9040
:1005E000AF900C94DF001F93CF93DF93EC0110E0EA
:1005F00040E0612FCE010E94B3021F5F1830C1F7A7
:10060000FE013496CC5ADF4F1192EC17FD07E1F74B
:10061000DF91CF911F9108950E94C3051F920F9201
:100620000FB60F9211242F933F938F939F93AF9305
:10063000BF938091280190912901A0912A01B09146
:100640002B013091270123E0230F2D3720F4019651
:10065000A11DB11D05C026E8230F0296A11DB11DE5
:10066000209327018093280190932901A0932A01C8
:10067000B0932B018091230190912401A091250139
:10068000B09126010196A11DB11D80932301909385
:100690002401A0932501B0932601BF91AF919F91B2
:1006A0008F913F912F910F900FBE0F901F90189533
:1006B0001F920F920FB60F9211242F933F934F93D7
:1006C0005F936F937F938F939F93AF93BF93EF93BA
:1006D000FF9380911F0190912001A0912101B09181
:1006E0002201892B8A2B8B2B49F190911E0180913D
:1006F000000089278093000080911F0190912001C4
:10070000A0912101B0912201181619061A061B06A4
:100710000CF03DC080911F0190912001A09121011A
:10072000B09122010197A109B10980931F01909313
:100730002001A0932101B093220129C080910001E2
:10074000E8E6F0E0E4919FEF90930001E130B9F02A
:1007500098F0E230C9F4909170009D7F9093700002
:1007600091E09093B0009091B100987F9460909345
:10077000B1001092B30008C010926E0005C09091B5
:100780006F009D7F90936F0060E00E94DF00FF91FB
:10079000EF91BF91AF919F918F917F916F915F91F9
:1007A0004F913F912F910F900FBE0F901F90189572
:1007B0001F920F920FB60F9211242F933F934F93D6
:1007C0005F936F937F938F939F93AF93BF93EF93B9
:1007D000FF938CE291E00E94BF01FF91EF91BF91E6
:1007E000AF919F918F917F916F915F914F913F91C9
:1007F0002F910F900FBE0F901F9018951F920F9280
:100800000FB60F9211242F938F939F93EF93FF9323
:10081000E0913C01F0913D018081E0914201F09135
:10082000430182FD12C09081809145018F5F8F73DB
:1008300020914601821751F0E0914501F0E0E45D1E
:10084000FE4F958F8093450101C08081FF91EF910C
:100850009F918F912F910F900FBE0F901F90189521
:1008600010922F0110922E0188EE93E0A0E0B0E0EC
:100870008093300190933101A0933201B093330102
:1008800085E091E090932D0180932C0185EC90E020
:10089000909339018093380184EC90E090933B0170
:1008A00080933A0180EC90E090933D0180933C016D
:1008B00081EC90E090933F0180933E0182EC90E0C8
:1008C000909341018093400186EC90E09093430126
:1008D0008093420110924501109246011092470107
:1008E000109248018CE0809364068BE0809365064B
:1008F0008AE08093660681E080936706E8E6F6E08A
:10090000119286E0E83BF807D9F787E080935D060F
:1009100086E080935E0685E080935F0689E08093A1
:100920005B0688E080935C068CE0809312048BE089
:10093000809313048AE08093140481E0809315046B
:10094000E6E1F4E0119284E0E636F807D9F78DE0AD
:10095000809366048CE08093C9018BE08093CA0188
:100960008AE08093CB0181E08093CC01EDECF1E053
:100970008DE192E011928E179F07E1F78DE0809351
:100980001D020895789484B5826084BD84B5816029
:1009900084BD85B5826085BD85B5816085BD80914A
:1009A0006E00816080936E001092810080918100C2
:1009B00082608093810080918100816080938100BA
:1009C000809180008160809380008091B10084607C
:1009D0008093B1008091B00081608093B0008091DD
:1009E0007A00846080937A0080917A00826080939C
:1009F0007A0080917A00816080937A0080917A00F9
:100A0000806880937A001092C10061E08091640652
:100A10000E940E0161E0809166060E940E0161E075
:100A2000809165060E940E0161E0809166060E9439
:100A3000DF0067E08BE00E94820260E089E00E94B4
:100A4000820261E08CE00E94820260E08FE00E94FE
:100A5000820284E696E00E94F3026FE08AE00E9440
:100A6000820261E08AE00E94820262E080915D067B
:100A70000E940E0162E080915E060E940E0160E01D
:100A800080915F060E940E0120915B0630E080910C
:100A90005C06482F50E05093610640936006309307
:100AA00063062093620661E00E940E0160E080917F
:100AB00062060E940E0161E0809166040E940E01B0
:100AC000E0913C01F0913D0182E08083E0913801AA
:100AD000F09139011082E0913A01F0913B018FECE5
:100AE000808310924401E0914001F091410186E041
:100AF0008083E0913E01F0913F018081806180839D
:100B0000E0913E01F0913F01808188608083E09117
:100B10003E01F0913F01808180688083E0913E0139
:100B2000F0913F0180818F7D808306E614E0D1E063
:100B300080915D060E94B600892B59F080915E0677
:100B40000E94B600892BB1F482E194E00E94F30286
:100B500011C0C0E04FEF6C2F82E194E00E94B3021D
:100B6000CF5FC830B9F7E6E1F4E0D1930E171F0765
:100B7000E1F7E4CF0E945002DBCFEE0FFF1F05909C
:100B8000F491E02D099481E090E0F8940C94C8056C
:040B9000F894FFCF07
:100B9400FF00000000E1014A0178012E02A901874B
:040BA400019B0100B0
:00000001FF
