:100000000C9486000C94AE000C94AE000C94AE00E0
:100010000C94AE000C94AE000C94AE000C94D8047A
:100020000C94AE000C94AE000C94AE000C94AE0098
:100030000C94AE000C94AE000C94AE000C94AE0088
:100040000C948E040C94AE000C947E050C94580510
:100050000C94AE000C94AE000C94AE000C94AE0068
:100060000C94AE000C94AE000200000000230026A9
:100070000029000708000000000000000008080038
:100080000000181800000008080060600000060664
:10009000000808C0C00018180003030808006666BE
:1000A00000006666000808C3C300181800C3C30830
:1000B0000800DBDB0000DBDB000000000024002781
:1000C000002A0000000000250028002B0004040482
:1000D00004040404040202020202020303030303F1
:1000E00003010204081020408001020408102001CE
:1000F00002040810200000000800020100000304B0
:1001000007000000000000000000B00511241FBE21
:10011000CFEFD8E0DEBFCDBF11E0A0E0B1E0E0EA74
:10012000F1E102C005900D92A831B107D9F726E0A0
:10013000A8E1B1E001C01D92AC3BB207E1F710E0CD
:10014000C6E8D0E004C02197FE010E94C308C5386C
:10015000D107C9F70E9442060C94CE080C94000007
:10016000833081F028F4813099F08230A1F0089535
:100170008730A9F08830B9F08430D1F480918000C4
:100180008F7D03C0809180008F77809380000895D9
:1001900084B58F7702C084B58F7D84BD089580912A
:1001A000B0008F7703C08091B0008F7D8093B00046
:1001B00008951F93CF93DF93282F30E0F901EB5080
:1001C000FF4F8491F901EF51FF4FD491F901E353AF
:1001D000FF4FC491CC23C1F0162F81110E94B000B3
:1001E000EC2FF0E0EE0FFF1FED53FF4FA591B49100
:1001F0009FB7F894111104C08C91D095D82302C0F8
:10020000EC91DE2BDC939FBFDF91CF911F9108957E
:10021000CF93DF9390E0FC01EF51FF4F2491FC015D
:10022000E353FF4F8491882361F190E0880F991F79
:10023000FC01E754FF4FC591D491FC01ED53FF4FF2
:10024000A591B491611109C09FB7F8948881209558
:1002500082238883EC912E230BC0623061F49FB718
:10026000F8948881322F309583238883EC912E2B4C
:100270002C939FBF06C08FB7F894E8812E2B28835C
:100280008FBFDF91CF9108953FB7F89480912C01F3
:1002900090912D01A0912E01B0912F0126B5A89B20
:1002A00005C02F3F19F00196A11DB11D3FBFBA2F08
:1002B000A92F982F8827820F911DA11DB11DBC0168
:1002C000CD0142E0660F771F881F991F4A95D1F72D
:1002D00008958F929F92AF92BF92CF92DF92EF924A
:1002E000FF926B017C010E9444014B015C01C1142F
:1002F000D104E104F104F1F00E944401DC01CB01DE
:1003000088199909AA09BB09883E9340A105B1053E
:1003100070F321E0C21AD108E108F10888EE880ED6
:1003200083E0981EA11CB11CC114D104E104F104A6
:1003300019F7DDCFFF90EF90DF90CF90BF90AF9097
:100340009F908F900895CF92DF92EF92FF920F933C
:100350001F93CF93DF936C017A018B01C0E0D0E053
:10036000CE15DF0581F0D8016D918D01D601ED919B
:10037000FC910190F081E02DC6010995892B11F0C7
:100380002196EECF7E01C701DF91CF911F910F9192
:10039000FF90EF90DF90CF900895089580E090E077
:1003A0000895FC01538D448D252F30E0842F90E07B
:1003B000821B930B541710F0CF9608950197089560
:1003C000FC01918D828D981761F0828DDF01A80F5D
:1003D000B11D5D968C91928D9F5F9F73928F90E07F
:1003E00008958FEF9FEF0895FC01918D828D9817EE
:1003F00031F0828DE80FF11D858D90E008958FEF2B
:100400009FEF0895FC01918D228D892F90E0805CF3
:100410009F4F821B91098F739927089580E391E084
:100420000E94020221E0892B09F420E0822F089526
:10043000FC01848DDF01A80FB11DA35ABF4F2C9181
:10044000848D90E001968F739927848FA689B78950
:100450002C93A089B1898C91837080648C93938D47
:10046000848D981306C00288F389E02D80818F7DEA
:1004700080830895EF92FF920F931F93CF93DF93A2
:10048000EC0181E0888F9B8D8C8D981305C0E889E5
:10049000F989808185FD26C0F62E0B8D10E00F5F57
:1004A0001F4F0F731127E02E8C8DE8120CC00FB672
:1004B00007FCFACFE889F989808185FFF5CFCE0165
:1004C0000E941802F1CF8B8DFE01E80FF11DE35A57
:1004D000FF4FF0829FB7F8940B8FEA89FB898081E8
:1004E00080620AC09FB7F894EE89FF896083E8892B
:1004F000F98980818370806480839FBF81E090E070
:10050000DF91CF911F910F91FF90EF900895CF93BE
:10051000DF93EC01888D8823C9F0EA89FB8980810B
:1005200085FD05C0A889B9898C9186FD0FC00FB6DD
:1005300007FCF5CF808185FFF2CFA889B9898C911E
:1005400085FFEDCFCE010E941802E7CFDF91CF915A
:10055000089580E090E0892B29F00E940E0281111D
:100560000C9400000895EF92FF920F931F93CF9386
:10057000DF93E82EF62EC7E0D0E0042F10E0B8019C
:100580000C2E02C0759567950A94E2F761708E2D66
:100590000E94D90061E08F2D0E94D90060E08F2D6C
:1005A0000E94D900219758F7DF91CF911F910F91A9
:1005B000FF90EF9008950F931F93CF93DF93082F31
:1005C000162F60E0809169060E94D900C0E0D0E05B
:1005D00080916B0690E0C817D90784F4402F609192
:1005E0006A06809168060E94B302412F60916A06F4
:1005F000809168060E94B3022196EACF60E0809164
:1006000069060E94D90061E080916906DF91CF916F
:100610001F910F910C94D9002F923F924F925F92AD
:100620006F927F928F929F92AF92BF92CF92DF9202
:10063000EF92FF920F931F93CF93DF9300D000D0E0
:100640001F92CDB7DEB79A838983FC012080312CBD
:100650008180912CF8E08F16910409F05DC096E13D
:10066000C92E94E0D92E00E010E0021513050CF01D
:10067000EFC0003511050CF043C0E981FA8182809A
:10068000A02EA694A694A694B12C60E080911704A5
:100690000E94D900E12CF12CF02FF7709F2E93943B
:1006A0008091190490E0E816F906F4F4AE14BF0442
:1006B00049F4492D60911804809116040E94B302F8
:1006C000482D08C040E060911804809116040E94F3
:1006D000B30240E060911804809116040E94B302B6
:1006E0002FEFE21AF20ADCCF60E0809117040E943B
:1006F000D90061E0809117040E94D900F60184823C
:100700000F5F1F4FFFEFCF1ADF0A29813A812F5F5A
:100710003F4F3A832983A9CF06E114E089819A816A
:100720009D838C83C12CD12C412C512C32014394BC
:10073000C214D3040CF08CC08C2D869586958695BA
:10074000E82FF0E0FA83E983E12CF12C8C2D8770FF
:100750008F5F8B83E814F9040CF06FC0F0E5CF16BF
:10076000D1040CF066C028E0E216F1040CF061C080
:10077000EC81FD81828190E00E2C02C095958795D9
:100780000A94E2F780FF0EC0F8012481D301C20170
:100790000E2C04C0880F991FAA1FBB1F0A94D2F702
:1007A000822B0EC0D301C2010E2C04C0880F991FEA
:1007B000AA1FBB1F0A94D2F78095F8019481892360
:1007C000848360E0809117040E94D900A12CB12C91
:1007D0008091190490E0A816B9060CF529813A8198
:1007E0002A153B0551F44B81609118048091160441
:1007F0000E94B302F801448108C040E060911804EF
:10080000809116040E94B30240E060911804809128
:1008100016040E94B302FFEFAF1ABF0AD9CF60E0FF
:10082000809117040E94D90061E0809117040E9412
:10083000D9002FEFE21AF20A8DCF3FEFC31AD30A85
:100840000F5F1F4F8C819D8101969D838C8370CF9C
:100850000F900F900F900F900F90DF91CF911F91FD
:100860000F91FF90EF90DF90CF90BF90AF909F904F
:100870008F907F906F905F904F903F902F90089552
:10088000BF92CF92DF92EF92FF920F931F93CF937D
:10089000DF93EC0100E010E060E089810E94D90064
:1008A0007E01C12CD12CBB24B394B00E8B8190E07F
:1008B000C816D90694F44B2D6A8188810E94B30230
:1008C00040E06A8188810E94B302F7011482FFEF41
:1008D000CF1ADF0AE00EF11EE9CF60E089810E94A5
:1008E000D90061E089810E94D9000F5F1F4F083055
:1008F000110591F6FE013496CC5ADF4F1192CE17B6
:10090000DF07E1F7DF91CF911F910F91FF90EF90FB
:10091000DF90CF90BF9008950E94C9081F920F9258
:100920000FB60F9211242F933F938F939F93AF9302
:10093000BF938091280190912901A0912A01B09143
:100940002B013091270123E0230F2D3720F401964E
:10095000A11DB11D05C026E8230F0296A11DB11DE2
:10096000209327018093280190932901A0932A01C5
:10097000B0932B0180912C0190912D01A0912E011B
:10098000B0912F010196A11DB11D80932C01909370
:100990002D01A0932E01B0932F01BF91AF919F9194
:1009A0008F913F912F910F900FBE0F901F90189530
:1009B0001F920F920FB60F9211242F933F934F93D4
:1009C0005F936F937F938F939F93AF93BF93EF93B7
:1009D000FF938091230190912401A0912501B09172
:1009E0002601892B8A2B8B2B49F190912201809132
:1009F00000008927809300008091230190912401B9
:100A0000A0912501B0912601181619061A061B0699
:100A10000CF03DC08091230190912401A09125010B
:100A2000B09126010197A109B10980932301909308
:100A30002401A0932501B093260129C080910001D3
:100A4000E8E6F0E0E4919FEF90930001E130B9F027
:100A500098F0E230C9F4909170009D7F90937000FF
:100A600091E09093B0009091B100987F9460909342
:100A7000B1001092B30008C010926E0005C09091B2
:100A80006F009D7F90936F0060E00E94D900FF91FE
:100A9000EF91BF91AF919F918F917F916F915F91F6
:100AA0004F913F912F910F900FBE0F901F9018956F
:100AB0001F920F920FB60F9211242F933F934F93D3
:100AC0005F936F937F938F939F93AF93BF93EF93B6
:100AD000FF9380E391E00E941802FF91EF91BF9194
:100AE000AF919F918F917F916F915F914F913F91C6
:100AF0002F910F900FBE0F901F9018951F920F927D
:100B00000FB60F9211242F938F939F93EF93FF9320
:100B1000E0914001F09141018081E0914601F09126
:100B2000470182FD12C09081809149018F5F8F73D0
:100B300020914A01821751F0E0914901F0E0E05D17
:100B4000FE4F958F8093490101C08081FF91EF9105
:100B50009F918F912F910F900FBE0F901F9018951E
:100B6000109233011092320188EE93E0A0E0B0E0E1
:100B70008093340190933501A0933601B0933701EF
:100B800089E091E0909331018093300185EC90E011
:100B900090933D0180933C0184EC90E090933F0161
:100BA00080933E0180EC90E090934101809340015E
:100BB00081EC90E0909343018093420182EC90E0BD
:100BC000909345018093440186EC90E09093470117
:100BD000809346011092490110924A0110924B01F4
:100BE00010924C018CE0809368068BE0809369063C
:100BF0008AE080936A0681E080936B06ECE6F6E07B
:100C0000119286E0EC3BF807D9F787E08093610604
:100C100086E08093620685E08093630689E0809396
:100C20005F0688E0809360068CE0809316048BE07A
:100C3000809317048AE08093180481E0809319045C
:100C4000EAE1F4E0119284E0EA36F807D9F78DE0A2
:100C500080936A048CE08093CD018BE08093CE0179
:100C60008AE08093CF0181E08093D001E1EDF1E053
:100C700081E292E011928E179F07E1F78DE0809359
:100C800021020895789484B5826084BD84B5816022
:100C900084BD85B5826085BD85B5816085BD809147
:100CA0006E00816080936E001092810080918100BF
:100CB00082608093810080918100816080938100B7
:100CC000809180008160809380008091B100846079
:100CD0008093B1008091B00081608093B0008091DA
:100CE0007A00846080937A0080917A008260809399
:100CF0007A0080917A00816080937A0080917A00F6
:100D0000806880937A001092C10061E0809168064B
:100D10000E94080161E080916A060E94080161E07A
:100D2000809169060E94080161E080916A060E9434
:100D3000D90067E08BE00E94DB0260E089E00E945E
:100D4000DB0261E08CE00E94DB0260E08FE00E9449
:100D5000DB0288E696E00E9440046FE08AE00E9491
:100D6000DB0261E08AE00E94DB0262E080916106C2
:100D70000E94080162E0809162060E94080160E022
:100D8000809163060E94080120915F0630E0809107
:100D90006006482F50E050936506409364063093F8
:100DA00067062093660661E00E94080160E080917A
:100DB00066060E94080161E080916A040E940801B1
:100DC000E0914001F091410182E08083E0913C019B
:100DD000F0913D011082E0913E01F0913F018FECD6
:100DE000808310924801E0914401F091450186E032
:100DF0008083E0914201F091430180818061808392
:100E0000E0914201F0914301808188608083E0910C
:100E10004201F0914301808180688083E09142012A
:100E2000F091430180818F7D808385E480937C00F5
:100E300080917A00806480937A0080917A0086FDA8
:100E4000FCCF609178008091790070E0782B072EBC
:100E5000000C880B990B611571058105910511F046
:100E60000E944E08DAE026E0C22ED12CE12CF12CB3
:100E70002091610630E0F901EB50FF4F8491F901B8
:100E8000EF51FF4FC491F901E353FF4F1491112328
:100E900079F081110E94B000E12FF0E0EE0FFF1F0A
:100EA000E759FF4FA591B491EC91CE2309F05AC0B8
:100EB0000E9400084B015C0182E3482E512C612CFA
:100EC000712C01E010E0D09FB001D19F700D112472
:100ED0006D587F4F4AE050E08BE694E00E9457083F
:100EE0008BE694E00E940C03C301B2010E946901E9
:100EF00086E194E00E9440040730110511F401E0FE
:100F000010E00F5F1F4F8AE0480E511C611C711CDE
:100F100088EC4816510461047104A9F6C501B401B6
:100F2000A70196010E946008AB01BC014F5F5F4FB3
:100F30006F4F7F4FD49FC001D59F900D1124BC01EE
:100F40006D587F4F4AE050E08BE694E00E945708CE
:100F50008BE694E00E940C0362E370E080E090E096
:100F60000E9469010E94A90283CF8F929F92AF9243
:100F7000BF92CF92DF92EF92FF92CF93DF93EC017B
:100F8000688179818A819B8161157105810591054F
:100F900021F464E279ED8BE597E02DE133EF41E058
:100FA00050E00E94600849015A019B01AC01A7EA88
:100FB000B1E40E947F086B017C01ACEEB4EFA501A7
:100FC00094010E948D08DC01CB018C0D9D1DAE1D8E
:100FD000BF1DB7FF03C00197A109B048888399835B
:100FE000AA83BB83BC01CD019F77DF91CF91FF9096
:100FF000EF90DF90CF90BF90AF909F908F9008952B
:101000008F929F92AF92BF92CF92DF92EF92FF9218
:10101000609101017091020180910301909104019E
:10102000611571058105910521F464E279ED8BE587
:1010300097E02DE133EF41E050E00E946008490164
:101040005A019B01AC01A7EAB1E40E947F086B0141
:101050007C01ACEEB4EFA50194010E948D08DC0187
:10106000CB018C0D9D1DAE1DBF1DB7FF03C00197A9
:10107000A109B0488093010190930201A09303015C
:10108000B0930401BC01CD019F77FF90EF90DF90FA
:10109000CF90BF90AF909F908F9008956093010183
:1010A0007093020180930301909304010895FB0162
:1010B000DC0102C005900D9241505040D8F70895D0
:1010C000052E97FB1EF400940E94770857FD07D069
:1010D0000E94920807FC03D04EF40C9477085095B8
:1010E0004095309521953F4F4F4F5F4F0895909514
:1010F0008095709561957F4F8F4F9F4F08950E9407
:10110000B408A59F900DB49F900DA49F800D911DD4
:1011100011240895B7FF0C947F080E947F08821B5A
:10112000930B0895A1E21A2EAA1BBB1BFD010DC053
:10113000AA1FBB1FEE1FFF1FA217B307E407F50787
:1011400020F0A21BB30BE40BF50B661F771F881F63
:10115000991F1A9469F760957095809590959B01F9
:10116000AC01BD01CF010895A29FB001B39FC001A2
:10117000A39F700D811D1124911DB29F700D811DC3
:101180001124911D0895EE0FFF1F0590F491E02D9D
:10119000099481E090E0F8940C94CE08F894FFCF85
:1011A000FF01000000000000003A02A301D1018706
:0811B000020202E001F401005B
:107E0000112484B714BE81FFF0D085E080938100F7
:107E100082E08093C00088E18093C10086E0809377
:107E2000C20080E18093C4008EE0C9D0259A86E02C
:107E300020E33CEF91E0309385002093840096BBD3
:107E4000B09BFECF1D9AA8958150A9F7CC24DD24C4
:107E500088248394B5E0AB2EA1E19A2EF3E0BF2EE7
:107E6000A2D0813461F49FD0082FAFD0023811F036
:107E7000013811F484E001C083E08DD089C08234E0
:107E800011F484E103C0853419F485E0A6D080C0E4
:107E9000853579F488D0E82EFF2485D0082F10E0AE
:107EA000102F00270E291F29000F111F8ED06801E7
:107EB0006FC0863521F484E090D080E0DECF843638
:107EC00009F040C070D06FD0082F6DD080E0C81688
:107ED00080E7D80618F4F601B7BEE895C0E0D1E017
:107EE00062D089930C17E1F7F0E0CF16F0E7DF06D8
:107EF00018F0F601B7BEE89568D007B600FCFDCFD4
:107F0000A601A0E0B1E02C9130E011968C91119780
:107F100090E0982F8827822B932B1296FA010C0160
:107F200087BEE89511244E5F5F4FF1E0A038BF0790
:107F300051F7F601A7BEE89507B600FCFDCF97BE46
:107F4000E89526C08437B1F42ED02DD0F82E2BD052
:107F50003CD0F601EF2C8F010F5F1F4F84911BD097
:107F6000EA94F801C1F70894C11CD11CFA94CF0C13
:107F7000D11C0EC0853739F428D08EE10CD085E9AC
:107F80000AD08FE07ACF813511F488E018D01DD067
:107F900080E101D065CF982F8091C00085FFFCCF94
:107FA0009093C60008958091C00087FFFCCF809118
:107FB000C00084FD01C0A8958091C6000895E0E648
:107FC000F0E098E1908380830895EDDF803219F02E
:107FD00088E0F5DFFFCF84E1DECF1F93182FE3DFCA
:107FE0001150E9F7F2DF1F91089580E0E8DFEE27F6
:047FF000FF270994CA
:027FFE00040479
:0400000300007E007B
:00000001FF
