:100000000C9463000C948B000C948B000C948B006C
:100010000C948B000C948B000C948B000C94650456
:100020000C948B000C948B000C948B000C948B0024
:100030000C948B000C948B000C948B000C948B0014
:100040000C948B060C948B000C940D050C94E70417
:100050000C948B000C948B000C948B000C948B00F4
:100060000C948B000C948B000200000000230026EF
:1000700000290000000000240027002A00000000E2
:1000800000250028002B00040404040404040402D6
:100090000202020202030303030303010204081025
:1000A00020408001020408102001020408102000F2
:1000B0000000080002010000030407000000000027
:1000C00000000000B60811241FBECFEFD8E0DEBF4D
:1000D000CDBF11E0A0E0B1E0E6E1F7E102C005909C
:1000E0000D92A232B107D9F726E0A2E2B1E001C039
:1000F0001D92AA3CB207E1F710E0C3E6D0E004C0CD
:100100002197FE010E947E0BC236D107C9F70E94DB
:10011000D5060C94890B0C940000CF92DF92EF92DD
:10012000FF920F931F93CF93DF936C017A018B01A2
:10013000C0E0D0E0CE15DF0581F0D8016D918D01D2
:10014000D601ED91FC910190F081E02DC601099559
:10015000892B11F02196EECF7E01C701DF91CF915F
:100160001F910F91FF90EF90DF90CF900895089529
:1001700080E090E00895FC01538D448D252F30E000
:10018000842F90E0821B930B541710F0CF960895A4
:1001900001970895FC01918D828D981761F0828DF1
:1001A000DF01A80FB11D5D968C91928D9F5F9F73AB
:1001B000928F90E008958FEF9FEF0895FC01918D4D
:1001C000828D981731F0828DE80FF11D858D90E0BA
:1001D00008958FEF9FEF0895FC01918D228D892F57
:1001E00090E0805C9F4F821B91098F73992708953F
:1001F00085E391E00E94EC0021E0892B09F420E0E6
:10020000822F0895FC01848DDF01A80FB11DA35A30
:10021000BF4F2C91848D90E001968F739927848F26
:10022000A689B7892C93A089B1898C918370806449
:100230008C93938D848D981306C00288F389E02DEA
:1002400080818F7D80830895EF92FF920F931F939B
:10025000CF93DF93EC0181E0888F9B8D8C8D981379
:1002600005C0E889F989808185FD26C0F62E0B8DB1
:1002700010E00F5F1F4F0F731127E02E8C8DE812D7
:100280000CC00FB607FCFACFE889F989808185FF99
:10029000F5CFCE010E940201F1CF8B8DFE01E80F58
:1002A000F11DE35AFF4FF0829FB7F8940B8FEA8954
:1002B000FB89808180620AC09FB7F894EE89FF892C
:1002C0006083E889F98980818370806480839FBF1F
:1002D00081E090E0DF91CF911F910F91FF90EF901F
:1002E0000895CF93DF93EC01888D8823C9F0EA89C4
:1002F000FB89808185FD05C0A889B9898C9186FD1F
:100300000FC00FB607FCF5CF808185FFF2CFA8891B
:10031000B9898C9185FFEDCFCE010E940201E7CF14
:10032000DF91CF91089580E090E0892B29F00E9421
:10033000F80081110C9400000895BF92CF92DF92D3
:10034000EF92FF920F931F93CF93DF93EC0100E0A6
:1003500010E060E089810E948D057E01C12CD12CC6
:10036000BB24B394B00E8B8190E0C816D90694F4E8
:100370004B2D6A8188810E94BC0540E06A8188819A
:100380000E94BC05F7011482FFEFCF1ADF0AE00ECE
:10039000F11EE9CF60E089810E948D0561E08981CD
:1003A0000E948D050F5F1F4F0830110591F6FE0169
:1003B0003496CC5ADF4F1192CE17DF07E1F7DF9169
:1003C000CF911F910F91FF90EF90DF90CF90BF9052
:1003D00008954F925F926F927F928F929F92AF9209
:1003E000BF92CF92DF92EF92FF920F931F93CF9322
:1003F000DF9300D000D01F92CDB7DEB78B0129016B
:100400003A0190910001891721F09F3F09F045C200
:1004100005C0E8E6F0E024912D837CC080930001C4
:10042000E8E6F0E094919D839F3F09F436C2913055
:1004300009F449C058F1923009F06CC01092B00034
:100440001092B1009091B00092609093B0009091A2
:10045000B10091609093B100282F30E0F901E95785
:10046000FF4FE491F0E0EE0FFF1FE358FF4F45917F
:10047000549150932D0140932C01F901E556FF4F03
:10048000E491E0932E0192E09D8303C214BC15BC5D
:1004900094B5926094BD95B5916095BD282F30E0DC
:1004A000F901E957FF4FE491F0E0EE0FFF1FE35829
:1004B000FF4F45915491F901E556FF4FE491E093C8
:1004C00023011D82E6C1109280001092810090915C
:1004D0008100986090938100909181009160909349
:1004E0008100282F30E0F901E957FF4FE491F0E057
:1004F000EE0FFF1FE358FF4F45915491F901E55668
:10050000FF4FE491E093220161E00E94150621E093
:100510002D8389C02D8127FDC0C161E00E94150691
:100520008D818D7F09F07FC04801A12CB12C60E046
:1005300072E18AE790E0A50194010E94EA0929830B
:100540003A834B835C8369017A0181E0C81AD10840
:10055000E108F1089FEFC916D104E104F10409F0A4
:1005600008F44EC060E472E48FE090E0A5019401CD
:100570000E94EA0969017A0181E0C81AD108E108FC
:10058000F1089D81923009F52FEFC216D104E104E4
:10059000F10409F008F444C160E970ED83E090E0F3
:1005A000A50194010E94EA0969017A0181E0C81A53
:1005B000D108E108F1089FEFC916D104E104F10464
:1005C00011F008F0BAC083E027C02FEFC216D104A3
:1005D000E104F104B9F0B0F068E478EE81E090E075
:1005E000A50194010E94EA0969017A0181E0C81A13
:1005F000D108E108F1089D81992309F413C1DCC0F9
:1006000081E001C082E09D81911106C095B5987F7F
:10061000892B85BD44C085E09091B100987F892BDE
:100620008093B1003CC04801A12CB12C60E072E184
:100630008AE790E0A50194010E94EA0969017A0124
:1006400081E0C81AD108E108F108C114D10491E091
:10065000E906F10488F068E478EE81E090E0A50115
:1006600094010E94EA0969017A0181E0C81AD1085F
:10067000E108F10883E001C081E09D81913079F4C7
:1006800090918100987F892B8093810041145104BF
:100690006104710449F42FEF3FEFA9012CC041140C
:1006A00051046104710471F0D801AA0FBB1FA301AA
:1006B00092010E94090A28EE33E040E050E00E94D7
:1006C0001C0A03C02FEF3FEFA9018D81813099F003
:1006D000823019F18111E1C0C7BC20932801309309
:1006E000290140932A0150932B0180916E00826072
:1006F00080936E00D2C0D0928900C092880020936F
:1007000024013093250140932601509327018091C5
:100710006F00826080936F00C0C0C092B3002093CE
:100720002F01309330014093310150933201809179
:100730007000826080937000B0C068E478EE81E061
:1007400090E0A50194010E94EA0969017A0191E013
:10075000C91AD108E108F1082FEFC216D104E1044B
:10076000F10441F138F164E274EF80E090E0A5011A
:1007700094010E94EA0969017A0181E0C81AD1084E
:10078000E108F1089FEFC916D104E104F10409F072
:1007900008F441CF62E17AE780E090E0A50194019E
:1007A0000E94EA0969017A0181E0C81AD108E108CA
:1007B000F10819C084E030CF2FEFC216D104E10454
:1007C000F10409F008F463C062E17AE780E090E0A8
:1007D000A50194010E94EA0969017A0191E0C91A10
:1007E000D108E108F1088FEFC816D104E104F10443
:1007F000A9F0A0F089819A81AB81BC812AE0B595EE
:10080000A795979587952A95D1F76C017D0121E0F1
:10081000C21AD108E108F10887E0FECE86E0FCCEDE
:1008200082E0FACE8FEFC816D104E104F10469F139
:1008300060F162E17AE780E090E0A50194010E9416
:10084000EA0969017A0191E0C91AD108E108F108C1
:100850002FEFC216D104E104F104A9F0A0F08981C0
:100860009A81AB81BC813AE0B595A795979587951C
:100870003A95D1F76C017D0121E0C21AD108E10857
:10088000F10885E0C3CE84E0C1CE83E0BFCE84E032
:10089000BACE61E00E94150647CE0F900F900F90E0
:1008A0000F900F90DF91CF911F910F91FF90EF90DC
:1008B000DF90CF90BF90AF909F908F907F906F9080
:1008C0005F904F9008950E94840B1F920F920FB675
:1008D0000F9211242F933F934F935F936F937F93C6
:1008E0008F939F93AF93BF93EF93FF9380912F01CB
:1008F00090913001A0913101B0913201892B8A2B66
:100900008B2B59F190912E01E0912C01F0912D014A
:1009100080818927808380912F0190913001A0915F
:100920003101B0913201181619061A061B060CF097
:100930003DC080912F0190913001A0913101B09183
:1009400032010197A109B10980932F0190933001E1
:10095000A0933101B093320129C080910001E8E6F3
:10096000F0E0E4919FEF90930001E130B9F098F04E
:10097000E230C9F4909170009D7F9093700091E0F7
:100980009093B0009091B100987F94609093B100E3
:100990001092B30008C010926E0005C090916F00D5
:1009A0009D7F90936F0060E00E948D05FF91EF9115
:1009B000BF91AF919F918F917F916F915F914F9177
:1009C0003F912F910F900FBE0F901F9018951F927F
:1009D0000F920FB60F9211242F933F934F935F9373
:1009E0006F937F938F939F93AF93BF93EF93FF93F7
:1009F00085E391E00E940201FF91EF91BF91AF91D9
:100A00009F918F917F916F915F914F913F912F9126
:100A10000F900FBE0F901F9018951F920F920FB658
:100A20000F9211242F938F939F93EF93FF93E09155
:100A30004501F09146018081E0914B01F0914C011C
:100A400082FD12C0908180914E018F5F8F73209143
:100A50004F01821751F0E0914E01F0E0EB5CFE4F48
:100A6000958F80934E0101C08081FF91EF919F91FE
:100A70008F912F910F900FBE0F901F9018953FB739
:100A8000F8948091C6069091C706A091C806B091CF
:100A9000C90626B5A89B05C02F3F19F00196A11DD8
:100AA000B11D3FBFBA2FA92F982F8827820F911D04
:100AB000A11DB11DBC01CD0142E0660F771F881F4B
:100AC000991F4A95D1F70895833081F028F4813039
:100AD00099F08230A1F008958730A9F08830B9F0FC
:100AE0008430D1F4809180008F7D03C0809180009C
:100AF0008F7780938000089584B58F7702C084B586
:100B00008F7D84BD08958091B0008F7703C0809160
:100B1000B0008F7D8093B00008951F93CF93DF9333
:100B2000282F30E0F901E155FF4F8491F901E55696
:100B3000FF4FD491F901E957FF4FC491CC23C1F085
:100B4000162F81110E946405EC2FF0E0EE0FFF1FBD
:100B5000E358FF4FA591B4919FB7F894111104C0C9
:100B60008C91D095D82302C0EC91DE2BDC939FBFF3
:100B7000DF91CF911F910895EF92FF920F931F93F2
:100B8000CF93DF93E82EF62EC7E0D0E0042F10E0DD
:100B9000B8010C2E02C0759567950A94E2F7617052
:100BA0008E2D0E948D0561E08F2D0E948D0560E0E5
:100BB0008F2D0E948D05219758F7DF91CF911F91BE
:100BC0000F91FF90EF9008950F931F93CF93DF93B2
:100BD000082F162F60E080916E060E948D05C0E000
:100BE000D0E08091700690E0C817D90784F4402FB8
:100BF00060916F0680916D060E94BC05412F609147
:100C00006F0680916D060E94BC052196EACF60E0D8
:100C100080916E060E948D0561E080916E06DF91E5
:100C2000CF911F910F910C948D05CF93DF9390E09E
:100C3000FC01E556FF4F2491FC01E957FF4F8491D9
:100C4000882361F190E0880F991FFC01ED58FF4F58
:100C5000C591D491FC01E358FF4FA591B491611166
:100C600009C09FB7F8948881209582238883EC91EE
:100C70002E230BC0623061F49FB7F8948881322F25
:100C8000309583238883EC912E2B2C939FBF06C035
:100C90008FB7F894E8812E2B28838FBFDF91CF91F7
:100CA00008958F929F92AF92BF92CF92DF92EF9270
:100CB000FF926B017C010E943F054B015C01C11456
:100CC000D104E104F104F1F00E943F05DC01CB0105
:100CD00088199909AA09BB09883E9340A105B10565
:100CE00070F321E0C21AD108E108F10888EE880EFD
:100CF00083E0981EA11CB11CC114D104E104F104CD
:100D000019F7DDCFFF90EF90DF90CF90BF90AF90BD
:100D10009F908F9008951F920F920FB60F921124FB
:100D20002F933F938F939F93AF93BF938091C2066E
:100D30009091C306A091C406B091C5063091C1063A
:100D400023E0230F2D3720F40196A11DB11D05C00E
:100D500026E8230F0296A11DB11D2093C1068093A2
:100D6000C2069093C306A093C406B093C5068091B3
:100D7000C6069091C706A091C806B091C906019613
:100D8000A11DB11D8093C6069093C706A093C80607
:100D9000B093C906BF91AF919F918F913F912F91D1
:100DA0000F900FBE0F901F901895789484B58260B5
:100DB00084BD84B5816084BD85B5826085BD85B5FF
:100DC000816085BD80916E00816080936E0010927D
:100DD00081008091810082608093810080918100F8
:100DE0008160809381008091800081608093800089
:100DF0008091B10084608093B1008091B0008160E7
:100E00008093B00080917A00846080937A00809112
:100E10007A00826080937A0080917A00816080936A
:100E20007A0080917A00806880937A001092C100E5
:100E300061E080916D060E94150661E080916F0669
:100E40000E94150661E080916E060E94150661E021
:100E500080916F060E948D0567E08BE00E94E4059B
:100E600060E089E00E94E40561E08CE00E94E40516
:100E700060E08FE00E94E4058DE696E00E949D010F
:100E80006FE08AE00E94E40561E08AE00E94E405E8
:100E900062E0809166060E94150662E08091670616
:100EA0000E94150660E0809168060E941506209158
:100EB000640630E080916506482F50E050936A0642
:100EC0004093690630936C0620936B0661E00E94A4
:100ED000150660E080916B060E94150661E0809126
:100EE0006F040E941506E0914501F091460182E0F1
:100EF0008083E0914101F09142011082E091430131
:100F0000F09144018FEC808310924D01E0914901F2
:100F1000F0914A0186E08083E0914701F091480119
:100F2000808180618083E0914701F0914801808158
:100F300088608083E0914701F0914801808180685A
:100F40008083E0914701F091480180818F7D80830B
:100F500085E480937C0080917A00806480937A009D
:100F600080917A0086FDFCCF6091780080917900B5
:100F700070E0782B072E000C880B990B611571051A
:100F80008105910511F00E94E1092091660630E08B
:100F9000F901E155FF4F8491F901E556FF4F149196
:100FA000F901E957FF4FC491CC2309F46DC08111B9
:100FB0000E946405EC2FF0E0EE0FFF1FE759FF4F92
:100FC000A591B491EC91E12309F45EC080913301C5
:100FD00090913401039709F054C087E0C82E81E056
:100FE000D82E96EDE92E91E0F92EC1E0F601D191CF
:100FF0006F0160E08091D3010E948D0500E010E058
:101000008091D50190E008171907ECF4011511053E
:1010100049F44C2F6091D4018091D2010E94BC050B
:101020004D2F08C040E06091D4018091D2010E9410
:10103000BC0540E06091D4018091D2010E94BC05C2
:101040000F5F1F4FDDCF60E08091D3010E948D05BF
:1010500061E08091D3010E948D05F701D1937F015A
:10106000CF5FC93019F660ED77E080E090E00E9434
:1010700051068BE194E00E949D0110923401109280
:1010800033010E94930181CF80913301909134010B
:101090000196909334018093330107E010E0C6E29B
:1010A000D5E0BE010D2E000C880B990B0E94850A1D
:1010B0006B017C010150110909F124E130E040E0AD
:1010C00050E0BE0180916F040E94E90164E170E08C
:1010D00080E090E00E94510662E070E080E090E0E5
:1010E0000E9451062AE037ED43E85FE3C701B601ED
:1010F0000E94E90A0E944D0AEB01D3CF6EE170E035
:1011000080E090E00E94510600E110E0C6E2D5E0E8
:10111000BE010D2E000C880B990B0E94850A6B01F5
:101120007C010150110909F451CF2AE030E040E080
:1011300050E0BE0180916F040E94E9016AE070E016
:1011400080E090E00E94510662E070E080E090E074
:101150000E94510628EB3EE145E85FE3C701B60176
:101160000E94E90A0E944D0AEB01D2CF1092380189
:101170001092370188EE93E0A0E0B0E0809339014F
:1011800090933A01A0933B01B0933C0183E191E03D
:10119000909336018093350185EC90E09093420165
:1011A0008093410184EC90E090934401809343014B
:1011B00080EC90E0909346018093450181EC90E0B3
:1011C000909348018093470182EC90E090934A010C
:1011D0008093490186EC90E090934C0180934B0101
:1011E00010924E0110924F01109250011092510135
:1011F0008CE080936D068BE080936E068AE080938E
:101200006F0681E080937006E1E7F6E0119286E0D8
:10121000E13CF807D9F787E08093660686E0809383
:10122000670685E08093680689E08093640688E01D
:10123000809365068CE080931B048BE080931C04F4
:101240008AE080931D0481E080931E04EFE1F4E0C6
:10125000119284E0EF36F807D9F78DE080936F04A0
:101260008CE08093D2018BE08093D3018AE080935D
:10127000D40181E08093D501E6EDF1E086E292E0D1
:1012800011928E179F07E1F78DE080932602089553
:101290008F929F92AF92BF92CF92DF92EF92FF9286
:1012A000CF93DF93EC01688179818A819B816115FD
:1012B00071058105910521F464E279ED8BE597E0F4
:1012C0002DE133EF41E050E00E94EA0949015A0163
:1012D0009B01AC01A7EAB1E40E94090A6B017C0101
:1012E000ACEEB4EFA50194010E94170ADC01CB011A
:1012F0008C0D9D1DAE1DBF1DB7FF03C00197A10939
:10130000B04888839983AA83BB83BC01CD019F77B2
:10131000DF91CF91FF90EF90DF90CF90BF90AF9093
:101320009F908F9008958F929F92AF92BF92CF928D
:10133000DF92EF92FF926091010170910201809122
:10134000030190910401611571058105910521F456
:1013500064E279ED8BE597E02DE133EF41E050E079
:101360000E94EA0949015A019B01AC01A7EAB1E4D4
:101370000E94090A6B017C01ACEEB4EFA501940157
:101380000E94170ADC01CB018C0D9D1DAE1DBF1DF7
:10139000B7FF03C00197A109B04880930101909362
:1013A0000201A0930301B0930401BC01CD019F771A
:1013B000FF90EF90DF90CF90BF90AF909F908F9075
:1013C000089560930101709302018093030190934B
:1013D00004010895052E97FB1EF400940E94010A53
:1013E00057FD07D00E941C0A07FC03D04EF40C9452
:1013F000010A50954095309521953F4F4F4F5F4FD3
:10140000089590958095709561957F4F8F4F9F4F70
:1014100008950E943E0AA59F900DB49F900DA49F31
:10142000800D911D11240895B7FF0C94090A0E94A4
:10143000090A821B930B0895A1E21A2EAA1BBB1B5B
:10144000FD010DC0AA1FBB1FEE1FFF1FA217B30790
:10145000E407F50720F0A21BB30BE40BF50B661FA6
:10146000771F881F991F1A9469F76095709580956A
:1014700090959B01AC01BD01CF010895A29FB001E1
:10148000B39FC001A39F700D811D1124911DB29FB8
:10149000700D811D1124911D08950E94540A6894B5
:1014A000B1110C94E30A08950E94C80A88F09F576E
:1014B00098F0B92F9927B751B0F0E1F0660F771F78
:1014C000881F991F1AF0BA95C9F714C0B13091F06E
:1014D0000E94E20AB1E008950C94E20A672F782F87
:1014E0008827B85F39F0B93FCCF386957795679533
:1014F000B395D9F73EF490958095709561957F4F9F
:101500008F4F9F4F0895E89409C097FB3EF4909544
:101510008095709561957F4F8F4F9F4F9923A9F0CC
:10152000F92F96E9BB279395F6958795779567955B
:10153000B795F111F8CFFAF4BB0F11F460FF1BC09F
:101540006F5F7F4F8F4F9F4F16C0882311F096E932
:1015500011C0772321F09EE8872F762F05C06623E0
:1015600071F096E8862F70E060E02AF09A95660F99
:10157000771F881FDAF7880F9695879597F9089552
:1015800057FD9058440F551F59F05F3F71F0479534
:10159000880F97FB991F61F09F3F79F08795089519
:1015A000121613061406551FF2CF4695F1DF08C038
:1015B000161617061806991FF1CF86957105610555
:1015C00008940895E894BB2766277727CB0197F9FD
:1015D00008950E94FC0A0C946D0B0E945F0B38F07A
:1015E0000E94660B20F0952311F00C94560B0C947E
:1015F0005C0B11240C94E30A0E94C00A70F3959FBF
:10160000C1F3950F50E0551F629FF001729FBB27F9
:10161000F00DB11D639FAA27F00DB11DAA1F649F95
:101620006627B00DA11D661F829F2227B00DA11D48
:10163000621F739FB00DA11D621F839FA00D611DCE
:10164000221F749F3327A00D611D231F849F600DEF
:10165000211D822F762F6A2F11249F5750409AF018
:10166000F1F088234AF0EE0FFF1FBB1F661F771FA4
:10167000881F91505040A9F79E3F510580F00C946F
:10168000560B0C94E30A5F3FE4F3983ED4F386953F
:1016900077956795B795F795E7959F5FC1F7FE2B0F
:1016A000880F911D9695879597F9089597F99F67EB
:1016B00080E870E060E008959FEF80EC08950024DA
:1016C0000A941616170618060906089500240A94A7
:1016D00012161306140605060895092E0394000C2D
:1016E00011F4882352F0BB0F40F4BF2B11F460FFBC
:1016F00004C06F5F7F4F8F4F9F4F0895EE0FFF1F06
:101700000590F491E02D099481E090E0F8940C9418
:06171000890BF894FFCFE5
:10171600FF010000000808204080808080402000F3
:1017260000000024018D00BB007101EC00CA00DE40
:021736000000B1
:107E0000112484B714BE81FFF0D085E080938100F7
:107E100082E08093C00088E18093C10086E0809377
:107E2000C20080E18093C4008EE0C9D0259A86E02C
:107E300020E33CEF91E0309385002093840096BBD3
:107E4000B09BFECF1D9AA8958150A9F7CC24DD24C4
:107E500088248394B5E0AB2EA1E19A2EF3E0BF2EE7
:107E6000A2D0813461F49FD0082FAFD0023811F036
:107E7000013811F484E001C083E08DD089C08234E0
:107E800011F484E103C0853419F485E0A6D080C0E4
:107E9000853579F488D0E82EFF2485D0082F10E0AE
:107EA000102F00270E291F29000F111F8ED06801E7
:107EB0006FC0863521F484E090D080E0DECF843638
:107EC00009F040C070D06FD0082F6DD080E0C81688
:107ED00080E7D80618F4F601B7BEE895C0E0D1E017
:107EE00062D089930C17E1F7F0E0CF16F0E7DF06D8
:107EF00018F0F601B7BEE89568D007B600FCFDCFD4
:107F0000A601A0E0B1E02C9130E011968C91119780
:107F100090E0982F8827822B932B1296FA010C0160
:107F200087BEE89511244E5F5F4FF1E0A038BF0790
:107F300051F7F601A7BEE89507B600FCFDCF97BE46
:107F4000E89526C08437B1F42ED02DD0F82E2BD052
:107F50003CD0F601EF2C8F010F5F1F4F84911BD097
:107F6000EA94F801C1F70894C11CD11CFA94CF0C13
:107F7000D11C0EC0853739F428D08EE10CD085E9AC
:107F80000AD08FE07ACF813511F488E018D01DD067
:107F900080E101D065CF982F8091C00085FFFCCF94
:107FA0009093C60008958091C00087FFFCCF809118
:107FB000C00084FD01C0A8958091C6000895E0E648
:107FC000F0E098E1908380830895EDDF803219F02E
:107FD00088E0F5DFFFCF84E1DECF1F93182FE3DFCA
:107FE0001150E9F7F2DF1F91089580E0E8DFEE27F6
:047FF000FF270994CA
:027FFE00040479
:0400000300007E007B
:00000001FF
